{
  "contractName": "CloudSystem",
  "abi": [
    {
      "inputs": [],
      "stateMutability": "nonpayable",
      "type": "constructor"
    },
    {
      "inputs": [
        {
          "internalType": "address",
          "name": "",
          "type": "address"
        }
      ],
      "name": "User",
      "outputs": [
        {
          "internalType": "uint256",
          "name": "from",
          "type": "uint256"
        },
        {
          "internalType": "uint256",
          "name": "to",
          "type": "uint256"
        }
      ],
      "stateMutability": "view",
      "type": "function"
    },
    {
      "inputs": [
        {
          "internalType": "bytes32",
          "name": "",
          "type": "bytes32"
        }
      ],
      "name": "fileCipherText",
      "outputs": [
        {
          "internalType": "bytes32",
          "name": "",
          "type": "bytes32"
        }
      ],
      "stateMutability": "view",
      "type": "function"
    },
    {
      "inputs": [
        {
          "internalType": "bytes32",
          "name": "",
          "type": "bytes32"
        }
      ],
      "name": "fileHashId",
      "outputs": [
        {
          "internalType": "bool",
          "name": "",
          "type": "bool"
        }
      ],
      "stateMutability": "view",
      "type": "function"
    },
    {
      "inputs": [],
      "name": "owner",
      "outputs": [
        {
          "internalType": "address",
          "name": "",
          "type": "address"
        }
      ],
      "stateMutability": "view",
      "type": "function"
    },
    {
      "inputs": [
        {
          "internalType": "address",
          "name": "",
          "type": "address"
        }
      ],
      "name": "userSecretKey",
      "outputs": [
        {
          "internalType": "bytes32",
          "name": "",
          "type": "bytes32"
        }
      ],
      "stateMutability": "view",
      "type": "function"
    },
    {
      "inputs": [
        {
          "internalType": "bytes32",
          "name": "hashId",
          "type": "bytes32"
        }
      ],
      "name": "setHashFileId",
      "outputs": [
        {
          "internalType": "bool",
          "name": "",
          "type": "bool"
        }
      ],
      "stateMutability": "nonpayable",
      "type": "function"
    },
    {
      "inputs": [
        {
          "internalType": "bytes32",
          "name": "hashId",
          "type": "bytes32"
        }
      ],
      "name": "checkHashFileId",
      "outputs": [
        {
          "internalType": "bool",
          "name": "",
          "type": "bool"
        }
      ],
      "stateMutability": "view",
      "type": "function"
    },
    {
      "inputs": [
        {
          "internalType": "address",
          "name": "userAddress",
          "type": "address"
        },
        {
          "internalType": "bytes32",
          "name": "key",
          "type": "bytes32"
        }
      ],
      "name": "setSecretKey",
      "outputs": [
        {
          "internalType": "bool",
          "name": "",
          "type": "bool"
        }
      ],
      "stateMutability": "nonpayable",
      "type": "function"
    },
    {
      "inputs": [],
      "name": "getSecretKey",
      "outputs": [
        {
          "internalType": "bytes32",
          "name": "",
          "type": "bytes32"
        }
      ],
      "stateMutability": "view",
      "type": "function"
    },
    {
      "inputs": [
        {
          "internalType": "bytes32",
          "name": "hashId",
          "type": "bytes32"
        },
        {
          "internalType": "bytes32",
          "name": "cipherText",
          "type": "bytes32"
        }
      ],
      "name": "setCipherText",
      "outputs": [
        {
          "internalType": "bool",
          "name": "",
          "type": "bool"
        }
      ],
      "stateMutability": "nonpayable",
      "type": "function"
    },
    {
      "inputs": [
        {
          "internalType": "bytes32",
          "name": "hashId",
          "type": "bytes32"
        }
      ],
      "name": "getCipherText",
      "outputs": [
        {
          "internalType": "bytes32",
          "name": "",
          "type": "bytes32"
        }
      ],
      "stateMutability": "view",
      "type": "function"
    },
    {
      "inputs": [
        {
          "internalType": "address",
          "name": "userAddress",
          "type": "address"
        },
        {
          "internalType": "uint256",
          "name": "no_of_days",
          "type": "uint256"
        }
      ],
      "name": "setInterval",
      "outputs": [
        {
          "internalType": "bool",
          "name": "",
          "type": "bool"
        }
      ],
      "stateMutability": "nonpayable",
      "type": "function"
    }
  ],
  "bytecode": "0x608060405234801561001057600080fd5b50336000806101000a81548173ffffffffffffffffffffffffffffffffffffffff021916908373ffffffffffffffffffffffffffffffffffffffff16021790555060004290506000620d2f00826100679190610114565b9050604051806040016040528083815260200182815250600160003373ffffffffffffffffffffffffffffffffffffffff1673ffffffffffffffffffffffffffffffffffffffff1681526020019081526020016000206000820151816000015560208201518160010155905050505061016a565b6000819050919050565b7f4e487b7100000000000000000000000000000000000000000000000000000000600052601160045260246000fd5b600061011f826100db565b915061012a836100db565b9250827fffffffffffffffffffffffffffffffffffffffffffffffffffffffffffffffff0382111561015f5761015e6100e5565b5b828201905092915050565b610db9806101796000396000f3fe608060405234801561001057600080fd5b50600436106100b45760003560e01c80634b6dc078116100715780634b6dc078146101da5780635de9ecec1461020a57806379ed40bc1461023a5780638da5cb5b14610258578063cb496d3e14610276578063df2d56bc146102a6576100b4565b80630f275649146100b9578063131c424c146100e9578063230eb9c6146101195780632b0dcd631461014a57806337f992651461017a578063413c705d146101aa575b600080fd5b6100d360048036038101906100ce91906108ed565b6102d6565b6040516100e09190610935565b60405180910390f35b61010360048036038101906100fe91906109e4565b610300565b6040516101109190610935565b60405180910390f35b610133600480360381019061012e9190610a24565b61042b565b604051610141929190610a60565b60405180910390f35b610164600480360381019061015f91906108ed565b61044f565b6040516101719190610a98565b60405180910390f35b610194600480360381019061018f9190610ab3565b6104a2565b6040516101a19190610935565b60405180910390f35b6101c460048036038101906101bf9190610af3565b610581565b6040516101d19190610935565b60405180910390f35b6101f460048036038101906101ef91906108ed565b61064b565b6040516102019190610935565b60405180910390f35b610224600480360381019061021f91906108ed565b61066b565b6040516102319190610935565b60405180910390f35b610242610731565b60405161024f9190610a98565b60405180910390f35b61026061085e565b60405161026d9190610b42565b60405180910390f35b610290600480360381019061028b9190610a24565b610882565b60405161029d9190610a98565b60405180910390f35b6102c060048036038101906102bb91906108ed565b61089a565b6040516102cd9190610a98565b60405180910390f35b60006002600083815260200190815260200160002060009054906101000a900460ff169050919050565b60008060009054906101000a900473ffffffffffffffffffffffffffffffffffffffff1673ffffffffffffffffffffffffffffffffffffffff163373ffffffffffffffffffffffffffffffffffffffff1614610391576040517f08c379a000000000000000000000000000000000000000000000000000000000815260040161038890610be0565b60405180910390fd5b6000429050600062015180846103a79190610c2f565b826103b29190610c89565b9050604051806040016040528083815260200182815250600160008773ffffffffffffffffffffffffffffffffffffffff1673ffffffffffffffffffffffffffffffffffffffff168152602001908152602001600020600082015181600001556020820151816001015590505060019250505092915050565b60016020528060005260406000206000915090508060000154908060010154905082565b600061045a826102d6565b610486577f46696c6520446f65736e27742045786973742100000000000000000000000000905061049d565b600360008381526020019081526020016000205490505b919050565b60008060009054906101000a900473ffffffffffffffffffffffffffffffffffffffff1673ffffffffffffffffffffffffffffffffffffffff163373ffffffffffffffffffffffffffffffffffffffff1614610533576040517f08c379a000000000000000000000000000000000000000000000000000000000815260040161052a90610be0565b60405180910390fd5b81600460008573ffffffffffffffffffffffffffffffffffffffff1673ffffffffffffffffffffffffffffffffffffffff168152602001908152602001600020819055506001905092915050565b60008060009054906101000a900473ffffffffffffffffffffffffffffffffffffffff1673ffffffffffffffffffffffffffffffffffffffff163373ffffffffffffffffffffffffffffffffffffffff1614610612576040517f08c379a000000000000000000000000000000000000000000000000000000000815260040161060990610be0565b60405180910390fd5b61061b836102d6565b6106285760009050610645565b816003600085815260200190815260200160002081905550600190505b92915050565b60026020528060005260406000206000915054906101000a900460ff1681565b60008060009054906101000a900473ffffffffffffffffffffffffffffffffffffffff1673ffffffffffffffffffffffffffffffffffffffff163373ffffffffffffffffffffffffffffffffffffffff16146106fc576040517f08c379a00000000000000000000000000000000000000000000000000000000081526004016106f390610be0565b60405180910390fd5b60016002600084815260200190815260200160002060006101000a81548160ff02191690831515021790555060019050919050565b600080429050600160003373ffffffffffffffffffffffffffffffffffffffff1673ffffffffffffffffffffffffffffffffffffffff1681526020019081526020016000206000015481101580156107cb5750600160003373ffffffffffffffffffffffffffffffffffffffff1673ffffffffffffffffffffffffffffffffffffffff168152602001908152602001600020600101548111155b1561081857600460003373ffffffffffffffffffffffffffffffffffffffff1673ffffffffffffffffffffffffffffffffffffffff1681526020019081526020016000205491505061085b565b6040518060400160405280601181526020017f5573657220556e617574686f72697a656400000000000000000000000000000081525061085790610d1c565b9150505b90565b60008054906101000a900473ffffffffffffffffffffffffffffffffffffffff1681565b60046020528060005260406000206000915090505481565b60036020528060005260406000206000915090505481565b600080fd5b6000819050919050565b6108ca816108b7565b81146108d557600080fd5b50565b6000813590506108e7816108c1565b92915050565b600060208284031215610903576109026108b2565b5b6000610911848285016108d8565b91505092915050565b60008115159050919050565b61092f8161091a565b82525050565b600060208201905061094a6000830184610926565b92915050565b600073ffffffffffffffffffffffffffffffffffffffff82169050919050565b600061097b82610950565b9050919050565b61098b81610970565b811461099657600080fd5b50565b6000813590506109a881610982565b92915050565b6000819050919050565b6109c1816109ae565b81146109cc57600080fd5b50565b6000813590506109de816109b8565b92915050565b600080604083850312156109fb576109fa6108b2565b5b6000610a0985828601610999565b9250506020610a1a858286016109cf565b9150509250929050565b600060208284031215610a3a57610a396108b2565b5b6000610a4884828501610999565b91505092915050565b610a5a816109ae565b82525050565b6000604082019050610a756000830185610a51565b610a826020830184610a51565b9392505050565b610a92816108b7565b82525050565b6000602082019050610aad6000830184610a89565b92915050565b60008060408385031215610aca57610ac96108b2565b5b6000610ad885828601610999565b9250506020610ae9858286016108d8565b9150509250929050565b60008060408385031215610b0a57610b096108b2565b5b6000610b18858286016108d8565b9250506020610b29858286016108d8565b9150509250929050565b610b3c81610970565b82525050565b6000602082019050610b576000830184610b33565b92915050565b600082825260208201905092915050565b7f546869732066756e6374696f6e206973207265737472696374656420746f207460008201527f686520636f6e74726163742773206f776e657200000000000000000000000000602082015250565b6000610bca603383610b5d565b9150610bd582610b6e565b604082019050919050565b60006020820190508181036000830152610bf981610bbd565b9050919050565b7f4e487b7100000000000000000000000000000000000000000000000000000000600052601160045260246000fd5b6000610c3a826109ae565b9150610c45836109ae565b9250817fffffffffffffffffffffffffffffffffffffffffffffffffffffffffffffffff0483118215151615610c7e57610c7d610c00565b5b828202905092915050565b6000610c94826109ae565b9150610c9f836109ae565b9250827fffffffffffffffffffffffffffffffffffffffffffffffffffffffffffffffff03821115610cd457610cd3610c00565b5b828201905092915050565b600081519050919050565b6000819050602082019050919050565b6000610d0682516108b7565b80915050919050565b600082821b905092915050565b6000610d2782610cdf565b82610d3184610cea565b9050610d3c81610cfa565b92506020821015610d7c57610d777fffffffffffffffffffffffffffffffffffffffffffffffffffffffffffffffff83602003600802610d0f565b831692505b505091905056fea26469706673582212206595f56abd14caf6dd7cf0cc042f15a201984cec6b189abcb5368b8402b8187164736f6c634300080c0033",
  "immutableReferences": {},
  "source": "// SPDX-License-Identifier: MIT\r\npragma solidity >=0.4.22 <0.9.0;\r\n\r\ncontract CloudSystem {\r\n  // event SignatureAdded(string message, bytes32 name);\r\n\r\n  // Store Data -->\r\n\r\n  // Contract owner\r\n  address public owner;\r\n\r\n  // Structure to set interval for user\r\n  struct Interval {\r\n    uint from;\r\n    uint to;\r\n  }\r\n\r\n  // Store user's interval mapped with user's address\r\n  mapping (address => Interval) public User;\r\n\r\n  // Array to store hash id's of files\r\n  mapping (bytes32 => bool) public fileHashId;\r\n\r\n  // Map file hash id with its cipher text\r\n  mapping (bytes32 => bytes32) public fileCipherText;\r\n\r\n  // Store user's secret key mapped with user's address\r\n  mapping (address => bytes32) public userSecretKey;\r\n\r\n\r\n  // Constructor -->\r\n  constructor() {\r\n    owner = msg.sender;\r\n    uint from = block.timestamp;\r\n    uint to = from + 10 days;\r\n    User[msg.sender] = Interval(from, to);\r\n  }\r\n\r\n\r\n  // Functions -->\r\n\r\n  // Function to check if sender is owner\r\n  modifier restricted() {\r\n    require(\r\n      msg.sender == owner,\r\n      \"This function is restricted to the contract's owner\"\r\n    );\r\n    _;\r\n  }\r\n\r\n  function setHashFileId(bytes32 hashId) public restricted returns (bool) {\r\n    fileHashId[hashId] = true;\r\n    return true;\r\n  }\r\n\r\n  function checkHashFileId(bytes32 hashId) public view returns (bool) {\r\n    return fileHashId[hashId];\r\n  }\r\n\r\n  function setSecretKey(address userAddress, bytes32 key) public restricted returns (bool) {\r\n    userSecretKey[userAddress] = key;\r\n    return true;\r\n  }\r\n\r\n  function getSecretKey() public view returns (bytes32) {\r\n    uint current_date = block.timestamp;\r\n    if(current_date >= User[msg.sender].from && current_date <= User[msg.sender].to) {\r\n      return userSecretKey[msg.sender];\r\n    }\r\n    else\r\n      return bytes32(bytes(\"User Unauthorized\"));\r\n  }\r\n\r\n  function setCipherText(bytes32 hashId, bytes32 cipherText) public restricted returns (bool) {\r\n    if(!checkHashFileId(hashId)) return false;\r\n    fileCipherText[hashId] = cipherText;\r\n    return true;\r\n  }\r\n\r\n  function getCipherText(bytes32 hashId) public view returns (bytes32) {\r\n    if(!checkHashFileId(hashId)) return \"File Doesn't Exist!\";\r\n    return fileCipherText[hashId];\r\n  }\r\n\r\n  function setInterval(address userAddress, uint no_of_days) public restricted returns (bool) {\r\n    uint from = block.timestamp;\r\n    uint to = from + no_of_days*1 days;\r\n    // if(from >= to) return false;\r\n    User[userAddress] = Interval(from, to);\r\n    return true;\r\n  }\r\n\r\n}",
  "sourcePath": "D:\\Documents\\Mtech NITT\\sem2\\Cloud Computing\\Project\\truffle-vue-guestbook\\contracts\\CloudSystem.sol",
  "compiler": {
    "name": "solc",
    "version": "0.8.12+commit.f00d7308.Emscripten.clang"
  },
  "schemaVersion": "3.4.6",
  "updatedAt": "2022-04-19T09:16:26.029Z",
  "devdoc": {
    "kind": "dev",
    "methods": {},
    "version": 1
  },
  "userdoc": {
    "kind": "user",
    "methods": {},
    "version": 1
  }
}