{
  "contractName": "CloudSystem",
  "abi": [
    {
      "inputs": [],
      "name": "owner",
      "outputs": [
        {
          "internalType": "address",
          "name": "",
          "type": "address"
        }
      ],
      "stateMutability": "view",
      "type": "function",
      "constant": true
    },
    {
      "inputs": [
        {
          "internalType": "bytes32",
          "name": "hashId",
          "type": "bytes32"
        }
      ],
      "name": "setHashFieldId",
      "outputs": [
        {
          "internalType": "bool",
          "name": "",
          "type": "bool"
        }
      ],
      "stateMutability": "nonpayable",
      "type": "function"
    },
    {
      "inputs": [
        {
          "internalType": "bytes32",
          "name": "hashId",
          "type": "bytes32"
        }
      ],
      "name": "checkHashFieldId",
      "outputs": [
        {
          "internalType": "bool",
          "name": "",
          "type": "bool"
        }
      ],
      "stateMutability": "view",
      "type": "function",
      "constant": true
    },
    {
      "inputs": [
        {
          "internalType": "address",
          "name": "userAddress",
          "type": "address"
        },
        {
          "internalType": "bytes32",
          "name": "key",
          "type": "bytes32"
        }
      ],
      "name": "setSecretKey",
      "outputs": [
        {
          "internalType": "bool",
          "name": "",
          "type": "bool"
        }
      ],
      "stateMutability": "nonpayable",
      "type": "function"
    },
    {
      "inputs": [],
      "name": "getSecretKey",
      "outputs": [
        {
          "internalType": "bytes32",
          "name": "",
          "type": "bytes32"
        }
      ],
      "stateMutability": "view",
      "type": "function",
      "constant": true
    },
    {
      "inputs": [
        {
          "internalType": "bytes32",
          "name": "hashId",
          "type": "bytes32"
        },
        {
          "internalType": "bytes32",
          "name": "cipherText",
          "type": "bytes32"
        }
      ],
      "name": "setCipherText",
      "outputs": [
        {
          "internalType": "bool",
          "name": "",
          "type": "bool"
        }
      ],
      "stateMutability": "nonpayable",
      "type": "function"
    },
    {
      "inputs": [
        {
          "internalType": "bytes32",
          "name": "hashId",
          "type": "bytes32"
        }
      ],
      "name": "getCipherText",
      "outputs": [
        {
          "internalType": "bytes32",
          "name": "",
          "type": "bytes32"
        }
      ],
      "stateMutability": "view",
      "type": "function",
      "constant": true
    },
    {
      "inputs": [
        {
          "internalType": "address",
          "name": "userAddress",
          "type": "address"
        },
        {
          "internalType": "uint256",
          "name": "from",
          "type": "uint256"
        },
        {
          "internalType": "uint256",
          "name": "to",
          "type": "uint256"
        }
      ],
      "name": "setInterval",
      "outputs": [
        {
          "internalType": "bool",
          "name": "",
          "type": "bool"
        }
      ],
      "stateMutability": "nonpayable",
      "type": "function"
    },
    {
      "inputs": [],
      "name": "getInterval",
      "outputs": [
        {
          "internalType": "uint256[2]",
          "name": "",
          "type": "uint256[2]"
        }
      ],
      "stateMutability": "view",
      "type": "function",
      "constant": true
    }
  ],
  "bytecode": "0x6080604052336000806101000a81548173ffffffffffffffffffffffffffffffffffffffff021916908373ffffffffffffffffffffffffffffffffffffffff16021790555034801561005057600080fd5b50610b41806100606000396000f3fe608060405234801561001057600080fd5b50600436106100935760003560e01c806379ed40bc1161006657806379ed40bc146101585780638da5cb5b1461017657806391ad27b414610194578063aaa43c6e146101b2578063f55c138b146101e257610093565b80632b0dcd631461009857806337f99265146100c8578063413c705d146100f85780635b4cd4c214610128575b600080fd5b6100b260048036038101906100ad9190610784565b610212565b6040516100bf91906107c0565b60405180910390f35b6100e260048036038101906100dd9190610839565b610265565b6040516100ef9190610894565b60405180910390f35b610112600480360381019061010d91906108af565b610344565b60405161011f9190610894565b60405180910390f35b610142600480360381019061013d9190610784565b61040e565b60405161014f9190610894565b60405180910390f35b6101606104d4565b60405161016d91906107c0565b60405180910390f35b61017e61051b565b60405161018b91906108fe565b60405180910390f35b61019c61053f565b6040516101a991906109ce565b60405180910390f35b6101cc60048036038101906101c79190610784565b6105e5565b6040516101d99190610894565b60405180910390f35b6101fc60048036038101906101f79190610a15565b61060f565b6040516102099190610894565b60405180910390f35b600061021d826105e5565b610249577f66616c73650000000000000000000000000000000000000000000000000000009050610260565b600360008381526020019081526020016000205490505b919050565b60008060009054906101000a900473ffffffffffffffffffffffffffffffffffffffff1673ffffffffffffffffffffffffffffffffffffffff163373ffffffffffffffffffffffffffffffffffffffff16146102f6576040517f08c379a00000000000000000000000000000000000000000000000000000000081526004016102ed90610aeb565b60405180910390fd5b81600460008573ffffffffffffffffffffffffffffffffffffffff1673ffffffffffffffffffffffffffffffffffffffff168152602001908152602001600020819055506001905092915050565b60008060009054906101000a900473ffffffffffffffffffffffffffffffffffffffff1673ffffffffffffffffffffffffffffffffffffffff163373ffffffffffffffffffffffffffffffffffffffff16146103d5576040517f08c379a00000000000000000000000000000000000000000000000000000000081526004016103cc90610aeb565b60405180910390fd5b6103de836105e5565b6103eb5760009050610408565b816003600085815260200190815260200160002081905550600190505b92915050565b60008060009054906101000a900473ffffffffffffffffffffffffffffffffffffffff1673ffffffffffffffffffffffffffffffffffffffff163373ffffffffffffffffffffffffffffffffffffffff161461049f576040517f08c379a000000000000000000000000000000000000000000000000000000000815260040161049690610aeb565b60405180910390fd5b60016002600084815260200190815260200160002060006101000a81548160ff02191690831515021790555060019050919050565b6000600460003373ffffffffffffffffffffffffffffffffffffffff1673ffffffffffffffffffffffffffffffffffffffff16815260200190815260200160002054905090565b60008054906101000a900473ffffffffffffffffffffffffffffffffffffffff1681565b610547610727565b6040518060400160405280600160003373ffffffffffffffffffffffffffffffffffffffff1673ffffffffffffffffffffffffffffffffffffffff168152602001908152602001600020600001548152602001600160003373ffffffffffffffffffffffffffffffffffffffff1673ffffffffffffffffffffffffffffffffffffffff16815260200190815260200160002060010154815250905090565b60006002600083815260200190815260200160002060009054906101000a900460ff169050919050565b60008060009054906101000a900473ffffffffffffffffffffffffffffffffffffffff1673ffffffffffffffffffffffffffffffffffffffff163373ffffffffffffffffffffffffffffffffffffffff16146106a0576040517f08c379a000000000000000000000000000000000000000000000000000000000815260040161069790610aeb565b60405180910390fd5b8183106106b05760009050610720565b604051806040016040528084815260200183815250600160008673ffffffffffffffffffffffffffffffffffffffff1673ffffffffffffffffffffffffffffffffffffffff1681526020019081526020016000206000820151816000015560208201518160010155905050600190505b9392505050565b6040518060400160405280600290602082028036833780820191505090505090565b600080fd5b6000819050919050565b6107618161074e565b811461076c57600080fd5b50565b60008135905061077e81610758565b92915050565b60006020828403121561079a57610799610749565b5b60006107a88482850161076f565b91505092915050565b6107ba8161074e565b82525050565b60006020820190506107d560008301846107b1565b92915050565b600073ffffffffffffffffffffffffffffffffffffffff82169050919050565b6000610806826107db565b9050919050565b610816816107fb565b811461082157600080fd5b50565b6000813590506108338161080d565b92915050565b600080604083850312156108505761084f610749565b5b600061085e85828601610824565b925050602061086f8582860161076f565b9150509250929050565b60008115159050919050565b61088e81610879565b82525050565b60006020820190506108a96000830184610885565b92915050565b600080604083850312156108c6576108c5610749565b5b60006108d48582860161076f565b92505060206108e58582860161076f565b9150509250929050565b6108f8816107fb565b82525050565b600060208201905061091360008301846108ef565b92915050565b600060029050919050565b600081905092915050565b6000819050919050565b6000819050919050565b61094c81610939565b82525050565b600061095e8383610943565b60208301905092915050565b6000602082019050919050565b61098081610919565b61098a8184610924565b92506109958261092f565b8060005b838110156109c65781516109ad8782610952565b96506109b88361096a565b925050600181019050610999565b505050505050565b60006040820190506109e36000830184610977565b92915050565b6109f281610939565b81146109fd57600080fd5b50565b600081359050610a0f816109e9565b92915050565b600080600060608486031215610a2e57610a2d610749565b5b6000610a3c86828701610824565b9350506020610a4d86828701610a00565b9250506040610a5e86828701610a00565b9150509250925092565b600082825260208201905092915050565b7f546869732066756e6374696f6e206973207265737472696374656420746f207460008201527f686520636f6e74726163742773206f776e657200000000000000000000000000602082015250565b6000610ad5603383610a68565b9150610ae082610a79565b604082019050919050565b60006020820190508181036000830152610b0481610ac8565b905091905056fea2646970667358221220d48132bc0ba1e3020a7e55ecfb9f383f88ec55fb807bf414588e1483e83d18d564736f6c634300080c0033",
  "immutableReferences": {},
  "source": "// SPDX-License-Identifier: MIT\r\npragma solidity >=0.4.22 <0.9.0;\r\n\r\ncontract CloudSystem {\r\n  // event SignatureAdded(string message, bytes32 name);\r\n\r\n  // Store Data -->\r\n\r\n  // Contract owner\r\n  address public owner = msg.sender;\r\n\r\n  // Structure to set interval for user\r\n  struct Interval {\r\n    uint256 from;\r\n    uint256 to;\r\n  }\r\n\r\n  // Store user's interval mapped with user's address\r\n  mapping (address => Interval) User;\r\n\r\n  // Array to store hash id's of files\r\n  mapping (bytes32 => bool) fileHashId;\r\n\r\n  // Map file hash id with its cipher text\r\n  mapping (bytes32 => bytes32) fileCipherText;\r\n\r\n  // Store user's secret key mapped with user's address\r\n  mapping (address => bytes32) userSecretKey;\r\n\r\n\r\n\r\n  // Functions -->\r\n\r\n  // Function to check if sender is owner\r\n  modifier restricted() {\r\n    require(\r\n      msg.sender == owner,\r\n      \"This function is restricted to the contract's owner\"\r\n    );\r\n    _;\r\n  }\r\n\r\n  function setHashFieldId(bytes32 hashId) public restricted returns (bool) {\r\n    fileHashId[hashId] = true;\r\n    return true;\r\n  }\r\n\r\n  function checkHashFieldId(bytes32 hashId) public view returns (bool) {\r\n    return fileHashId[hashId];\r\n  }\r\n\r\n  function setSecretKey(address userAddress, bytes32 key) public restricted returns (bool) {\r\n    userSecretKey[userAddress] = key;\r\n    return true;\r\n  }\r\n\r\n  function getSecretKey() public view returns (bytes32) {\r\n    return userSecretKey[msg.sender];\r\n  }\r\n\r\n  function setCipherText(bytes32 hashId, bytes32 cipherText) public restricted returns (bool) {\r\n    if(!checkHashFieldId(hashId)) return false;\r\n    fileCipherText[hashId] = cipherText;\r\n    return true;\r\n  }\r\n\r\n  function getCipherText(bytes32 hashId) public view returns (bytes32) {\r\n    if(!checkHashFieldId(hashId)) return \"false\";\r\n    return fileCipherText[hashId];\r\n  }\r\n\r\n  function setInterval(address userAddress, uint from, uint to) public restricted returns (bool) {\r\n    if(from >= to) return false;\r\n    User[userAddress] = Interval(from, to);\r\n    return true;\r\n  }\r\n\r\n  function getInterval() public view returns (uint256[2] memory) {\r\n    return [User[msg.sender].from, User[msg.sender].to];\r\n  }\r\n\r\n\r\n  // function signBook(bytes32 name) public {\r\n  //   guests.push(name);\r\n  //   emit SignatureAdded(\"New guest signature!\", name);\r\n  // }\r\n  // function getNames() public view returns (bytes32[] memory) {\r\n  //   return guests;\r\n  // }\r\n}",
  "sourcePath": "D:\\Documents\\Mtech NITT\\sem2\\Cloud Computing\\Project\\truffle-vue-guestbook\\contracts\\CloudSystem.sol",
  "compiler": {
    "name": "solc",
    "version": "0.8.12+commit.f00d7308.Emscripten.clang"
  },
  "schemaVersion": "3.4.6",
  "updatedAt": "2022-03-26T07:56:52.390Z",
  "networkType": "ethereum",
  "devdoc": {
    "kind": "dev",
    "methods": {},
    "version": 1
  },
  "userdoc": {
    "kind": "user",
    "methods": {},
    "version": 1
  }
}